:020000040000FA
:100000000C9463000C948B000C948B000C944907A7
:100010000C9449070C9449070C948B000C948B00AA
:100020000C948B000C948B000C948B000C948B0024
:100030000C948B000C948B000C948B000C948B0014
:100040000C94FF060C948B000C94CD060C94A70620
:100050000C948B000C948B000C948B000C948B00F4
:100060000C948B000C948B0000000008000201002F
:100070000003040700000000000000000000000072
:1000800023002600290000000000240027002A0089
:1000900000000000250028002B00040404040404D0
:1000A0000404020202020202030303030303010227
:1000B00004081020408001020408102001020408F6
:1000C00010200D08EB0E11241FBECFEFD8E0DEBFCD
:1000D000CDBF24E0AAE9B2E001C01D92AF37B2075C
:1000E000E1F712E0A0E0B1E0E2EAF8E202C0059038
:1000F0000D92AA39B107D9F710E0C2E6D0E004C0EA
:100100002197FE010E941812C136D107C9F70E943B
:1001100067090C9444140C940000AF92BF92CF92E4
:10012000DF92EF92FF920F931F93CF93DF936C01B7
:100130007B018B01040F151FEB015E01AE18BF0898
:10014000C017D10759F06991D601ED91FC9101904A
:10015000F081E02DC6010995892B79F7C501DF9162
:10016000CF911F910F91FF90EF90DF90CF90BF90B4
:10017000AF900895FC01538D448D252F30E0842FDE
:1001800090E0821B930B541710F0CF9608950197BF
:100190000895FC01918D828D981761F0A28DAE0FAC
:1001A000BF2FB11D5D968C91928D9F5F9F73928F33
:1001B00090E008958FEF9FEF0895FC01918D828D5F
:1001C000981731F0828DE80FF11D858D90E008952C
:1001D0008FEF9FEF0895FC01918D228D892F90E084
:1001E000805C9F4F821B91098F73992708958DEE34
:1001F00092E00E94EB0021E0892B09F420E0822F9D
:10020000089580E090E0892B29F00E94F700811189
:100210000C9400000895FC01A48DA80FB92FB11D06
:10022000A35ABF4F2C91848D90E001968F7399272C
:10023000848FA689B7892C93A089B1898C9183700A
:1002400080648C93938D848D981306C00288F38903
:10025000E02D80818F7D80830895EF92FF920F9330
:100260001F93CF93DF93EC0181E0888F9B8D8C8D62
:1002700098131AC0E889F989808185FF15C09FB756
:10028000F894EE89FF896083E889F9898081837019
:10029000806480839FBF81E090E0DF91CF911F91C8
:1002A0000F91FF90EF900895F62E0B8D10E00F5FE9
:1002B0001F4F0F731127E02E8C8D8E110CC00FB6BF
:1002C00007FCFACFE889F989808185FFF5CFCE0157
:1002D0000E940B01F1CFEB8DEC0FFD2FF11DE35AC6
:1002E000FF4FF0829FB7F8940B8FEA89FB898081DA
:1002F0008062CFCFCF93DF93EC01888D8823B9F054
:10030000AA89BB89E889F9898C9185FD03C0808120
:1003100086FD0DC00FB607FCF7CF8C9185FFF2CF9D
:10032000808185FFEDCFCE010E940B01E9CFDF91E7
:10033000CF910895CF92DF92FF920F931F93CF93A7
:10034000DF93EC01F62E142F1B821A8288EE93E0C5
:10035000A0E0B0E08C839D83AE83BF838AE091E010
:10036000998388831F8A1E8A198E188E1B8E1A8E77
:100370001D8E1C8E6E8D6E7F6D7F6E8F669561708B
:1003800081E06827842F0E94C107412F50E09A0125
:1003900022553F4FF901649146565F4FFA0184910F
:1003A000882399F090E0880F991FFC01EA57FF4FCE
:1003B000A591B491FC01E057FF4F859194918FB7BF
:1003C000F8949C91692B6C938FBFF9012491288B31
:1003D000FA014491E42FF0E0EE0FFF1FE057FF4FCA
:1003E000859194919A8B898B0F2D10E0C8018255CD
:1003F0009F4F6C01FC01249106561F4FF801849118
:100400008823C9F090E0880F991FFC01EA57FF4F3D
:10041000A591B491FC01E057FF4F459154913FB72E
:10042000F8949C91822F809598239C93FA01908157
:10043000892380833FBF8E8D81FD04C061E08F2DB5
:100440000E94C107FC86F601C490CD86F801049194
:10045000E02FF0E0EE0FFF1FE458FF4F85919491DD
:100460009F878E87DF91CF911F910F91FF90DF9033
:10047000CF9008958E50806480937C0080917A00A4
:10048000806480937A0080917A0086FDFCCF809111
:1004900078009091790008953FB7F8948091DF0239
:1004A0009091E002A091E102B091E20226B5A89BF2
:1004B00005C02F3F19F00196A11DB11D3FBFBA2FF6
:1004C000A92F982F8827BC01CD01620F711D811DB6
:1004D000911D42E0660F771F881F991F4A95D1F73B
:1004E00008958F929F92AF92BF92CF92DF92EF9238
:1004F000FF924B015C010E944C026B017C010E9447
:100500004C026C197D098E099F09683E7340810574
:100510009105A8F321E0821A9108A108B10888EE9C
:10052000C80E83E0D81EE11CF11C81149104A104C3
:10053000B10429F7FF90EF90DF90CF90BF90AF907C
:100540009F908F9008952FB7F8946091DB0270917F
:10055000DC028091DD029091DE022FBF0895209190
:10056000EB023091EC022817390771F49091E902FF
:100570008091EA02981741F0E091E902F0E0E65636
:10058000FD4F808190E008958FEF9FEF08950895CB
:10059000EF92FF920F931F93CF93DF93DC015C9652
:1005A000ED90FC905D97E114F10479F481E090E026
:1005B00013969C938E93129790E080E0DF91CF91F9
:1005C0001F910F91FF90EF9008955196ED91FC913E
:1005D000529750968C915097982F90950FB75E96A2
:1005E0002C915E97122F127021FD6095F894208156
:1005F000112319F1282B2083E7012197F1F728E037
:10060000462F50E0308160FF1AC0382B3083E7015D
:100610002197F1F7BA0175956795215089F7112354
:1006200081F08081892380830FBF5C968D919C919E
:100630000197F1F781E090E0C1CF2923DCCF392386
:10064000E5CF9081892BEFCF2091EB023091EC0226
:100650002817390771F48091EA022091E90290E0AD
:10066000805C9F4F821B910960E470E00E94E21160
:10067000089590E080E008952091EB023091EC0223
:1006800028173907B9F49091E9028091EA02981786
:1006900089F0E091E902F0E0E656FD4F808120917B
:1006A000E90230E02F5F3F4F2F7333272093E90299
:1006B00090E008958FEF9FEF0895E091EB02F091A5
:1006C000EC02E817F90769F4A389B4899C9185893C
:1006D000809589238C931092EC021092EB0281E0BA
:1006E000089580E00895CF93DF93EC011B8E1A8E5E
:1006F000198E188E1F8A1E8A8DE991E09D8F8C8F2E
:100700008C858631E0F52DEB30E03F8B2E8B2BE98D
:1007100031E0398F288F2CE231E03B8F2A8F909186
:100720006800883008F44EC021E08E3008F420E0E4
:1007300081E001C0880F2A95EAF7892B8093680031
:100740009C852DE630E0983050F02BE630E09E306E
:1007500030F02CE630E0963110F030E020E03C8BB9
:100760002B8B292F30E0983078F581E001C0880F7D
:100770009A95EAF78D8B8C8D9D8D0197F1F78A8D77
:100780009B8D892BE1F08091EB029091EC02C817D0
:10079000D907A9F0009711F00E945D038E8D8E7F1E
:1007A0008E8F1092EA021092E902D093EC02C0936D
:1007B000EB02EB89FC8980819D89892B8083DF9105
:1007C000CF91089584E0B9CF9E3040F4285031098C
:1007D00081E001C0880F2A95EAF7CCCF2E5031096D
:1007E000F7CF90E080E00895CF93DF93EC018A8506
:1007F0009B85AC85BD858E839F83A887B9870E9422
:10080000A3026A837B838C839D8381E089838883B1
:10081000DF91CF910895CF93DF93EC018E819F817B
:10082000A885B9858A839B83AC83BD830E94A3027C
:100830006A877B878C879D8781E089838883DF91A6
:10084000CF910895FB0101900020E9F73197AF01A6
:10085000461B570BDC01ED91FC910280F381E02DEA
:1008600009948F929F92AF92BF92EF92FF920F9353
:100870001F93CF93DF93CDB7DEB7A1970FB6F89450
:10088000DEBF0FBECDBF7C01FA01CB0119A2223021
:1008900008F42AE08E010F5D1F4F822E912CB12C9F
:1008A000A12CBF01A50194010E94F611F901CA0112
:1008B0006A300CF5605DD8016E938D01232B242BDB
:1008C000252B79F790E080E0109721F0BD01C7015A
:1008D0000E942204A1960FB6F894DEBF0FBECDBFD2
:1008E000DF91CF911F910F91FF90EF90BF90AF904C
:1008F0009F908F900895695CDECFCF92DF92EF9248
:10090000FF92CF93DF936C01990FEE08FF08F7FE7B
:1009100023C06DE28DEE92E00E942D01EC01442790
:100920005527BA014C195D096E097F092AE08DEE41
:1009300092E00E943104C80FD91F6AE271E08DEE87
:1009400092E00E9422048C0F9D1FDF91CF91FF90B7
:10095000EF90DF90CF9008952AE0B701A6018DEEC9
:1009600092E00E943104EC01E8CF2F923F924F9227
:100970005F926F927F928F929F92AF92BF92CF922F
:10098000DF92EF92FF921F93CF93DF93EC016A0106
:100990007B01722EAB019601CB01B6010E94CD11F5
:1009A0006DE271E0811126C046015701E894B7F865
:1009B0002FEF3FEF4FE75FE7C501B4010E94CD1174
:1009C00081110CC02FEF3FEF4FE75FE7C501B40186
:1009D0000E94450F61E371E0181664F02FEF3FEFBE
:1009E0004FE75FE4C701B6010E94C8111816B4F4BE
:1009F00065E371E0CE01DF91CF911F91FF90EF9001
:100A0000DF90CF90BF90AF909F908F907F906F902E
:100A10005F904F903F902F900C9422042FEF3FEF68
:100A20004FE75FECC701B6010E94450F87FDE0CF9D
:100A300020E030E0A901C701B6010E94450F312C2A
:100A4000212C87FF0DC0E881F9810190F081E02D14
:100A50006DE2CE0109951C01F7FAF094F7F8F094D5
:100A600010E060E070E080E09FE3711641F020E06C
:100A700030E040E251E40E9427111F5FF6CFA7014A
:100A800096010E94BB102B013C010E9499114B0161
:100A90005C012AE0BC01A401CE010E9431047C016A
:100AA000E20CF31C1123E1F1C501B4010E944A0FCD
:100AB0009B01AC01C301B2010E94BA104B015C0161
:100AC000E881F9810190F081E02D6EE2CE01099577
:100AD000E80EF91E115020F120E030E040E251E430
:100AE000C501B4010E94AB0F2B013C010E9499117A
:100AF0004B01B12CA12C2AE0B501A401CE010E942A
:100B00003104E80EF91EC501B4010E944A0F9B0191
:100B1000AC01C301B2010E94BA104B015C01DACFF3
:100B2000C701DF91CF911F91FF90EF90DF90CF90A1
:100B3000BF90AF909F908F907F906F905F904F90FD
:100B40003F902F9008950F931F93CF93DF93EC0165
:100B50000E94B5048C016AE271E0CE010E94220479
:100B6000800F911FDF91CF911F910F9108950F93E7
:100B70001F93CF93DF93EC010E9422048C016AE261
:100B800071E0CE010E942204800F911FDF91CF916E
:100B90001F910F9108950C9422042F923F924F922F
:100BA0005F926F927F928F929F92AF92BF92CF92FD
:100BB000DF92EF92FF920F931F93CF93DF93D82F83
:100BC000C92F8B010E94090F24E630E040E050E07D
:100BD0000E94F61149019B01AC0160E876E988E9C1
:100BE00090E00E94D2116B017C01F8019182808219
:100BF000ED2FFC2F2191822F022E000C990BC09714
:100C00000A97C0F32E3239F51F0180E8882E86E955
:100C1000982E88E9A82EB12C9AE0492E512C612CEF
:100C2000712CF101C1911F010C2E000CDD0BE0971E
:100C3000CA30D10580F4C501B401A30192010E941C
:100C4000F61149015A01DE010E941E12C60ED71E7E
:100C5000E81EF91EE6CFA5E0B0E0A70196010E94CC
:100C600069106F5F7F4F8F4F9F4F23E030E040E070
:100C700050E00E94F611F8012283338344835583A8
:100C80001682DF91CF911F910F91FF90EF90DF902F
:100C9000CF90BF90AF909F908F907F906F905F901C
:100CA0004F903F902F9008951F93CF93DF93EC01C7
:100CB00018811D3209F42196CE010E94090F9B0173
:100CC000AC01A4E6B0E00E946910AB01BC01FE01DA
:100CD0002991822F022E000C990BC0970A97B8F326
:100CE0002E3231F58181082E000C990BC0978A3085
:100CF0009105F0F4AAE0A89F9001A99F300D11245E
:100D0000C901330FAA0BBB0B480F591F6A1F7B1F6A
:100D10008281082E000C990BC0978A30910540F40F
:100D2000092E000CAA0BBB0B480F591F6A1F7B1F13
:100D30001D3239F470956095509541955F4F6F4F16
:100D40007F4FCB01BA01DF91CF911F9108951F9280
:100D50000F920FB60F9211242F933F934F935F93EF
:100D60006F937F938F939F93AF93BF93EF93FF9373
:100D70008DEE92E00E940B01FF91EF91BF91AF9138
:100D80009F918F917F916F915F914F913F912F91A3
:100D90000F900FBE0F901F9018951F920F920FB6D5
:100DA0000F9211242F938F939F93EF93FF93E091D2
:100DB000FD02F091FE028081E0910303F0910403B3
:100DC00082FD1BC09081809106038F5F8F732091FD
:100DD0000703821741F0E0910603F0E0E351FD4F75
:100DE000958F80930603FF91EF919F918F912F91A3
:100DF0000F900FBE0F901F9018958081F4CF1F9217
:100E00000F920FB60F9211242F933F938F939F93BE
:100E1000AF93BF938091DB029091DC02A091DD0241
:100E2000B091DE023091DA0223E0230F2D3758F51E
:100E30000196A11DB11D2093DA028093DB029093ED
:100E4000DC02A093DD02B093DE028091DF0290917C
:100E5000E002A091E102B091E2020196A11DB11D54
:100E60008093DF029093E002A093E102B093E2024C
:100E7000BF91AF919F918F913F912F910F900FBE96
:100E80000F901F90189526E8230F0296A11DB11D03
:100E9000D2CF1F920F920FB60F9211242F933F9330
:100EA0004F935F936F937F938F939F93AF93BF9372
:100EB000EF93FF93E091EB02F091EC02309749F051
:100EC000A685B7858585968D91FF14C09C91892351
:100ED000A1F4FF91EF91BF91AF919F918F917F917D
:100EE0006F915F914F913F912F910F900FBE0F9097
:100EF0001F9018959C91892361F7A389B4899C91CF
:100F00008589809589238C93868997890197F1F744
:100F1000608D718DA685B785558538E020E0CB01C1
:100F20000197F1F7822F90E095958795282F4C91A6
:100F3000452309F02068315091F7868D81FD209579
:100F40008091EA0290E001968F7399273091E9022F
:100F5000381799F0A091EA02B0E0A656BD4F2C9345
:100F60008093EA02828D938D0197F1F7A389B4896A
:100F70008C919589892B8C93ACCF868D8160868FDF
:100F8000F1CF90E0FC01E859FF4F2491FC01E255BC
:100F9000FF4F3491FC01E656FF4FE491EE23C9F078
:100FA000222339F0233001F1A8F4213019F1223045
:100FB00029F1F0E0EE0FFF1FE057FF4FA591B4912C
:100FC0008FB7F894EC91611126C030953E233C9385
:100FD0008FBF08952730A9F02830C9F0243049F791
:100FE000809180008F7D03C0809180008F778093F7
:100FF0008000DFCF84B58F7784BDDBCF84B58F7D54
:10100000FBCF8091B0008F778093B000D2CF8091DA
:10101000B0008F7DF9CF3E2BDACF1092F002109204
:10102000EF0288EE93E0A0E0B0E08093F1029093AD
:10103000F202A093F302B093F4028CE191E090935A
:10104000EE028093ED0285EC90E09093FA0280939B
:10105000F90284EC90E09093FC028093FB0280EC18
:1010600090E09093FE028093FD0281EC90E09093DB
:1010700000038093FF0282EC90E090930203809340
:10108000010386EC90E09093040380930303109295
:10109000060310920703109208031092090343E01D
:1010A00062E08CE594E00E949A014BE06AE08DE3F7
:1010B00094E00E949A011092900310929103109272
:1010C000930310929203109294031092950310923E
:1010D0009603109297031092980310929A0310921D
:1010E000990310929B0310929C0310929D031092FF
:1010F0009E0310929F031092A1031092A0031092DE
:10110000A2031092A3031092A4031092A5031092BD
:10111000A6031092A8031092A7031092A90310929D
:10112000AA031092AB031092AC031092AD0310927D
:10113000B2031092B3031092B4031092B50310924D
:10114000B6031092B7031092C0031092C10310921D
:10115000C2031092C3031092C4031092C5031092ED
:10116000CE031092CF031092D4031092D5031092A5
:10117000D6031092D7031092DC031092DD03109275
:10118000E2031092E3031092E4031092E50310923D
:10119000EA031092EB031092F0031092F103109205
:1011A000F2031092F3031092F8031092F9031092D5
:1011B000FE031092FF03109200041092010410929B
:1011C00006041092070410920C0410920D04109261
:1011D0000E0410920F04109214041092150482E071
:1011E000809325041092260410922704109228045C
:1011F00010922A041092290410922C0410922B04AD
:1012000010922D0410922E0410922F04109230048C
:10121000109231041092320410923304109234046C
:10122000109235041092360410923704109238044C
:101230001092390410923A0410923B0410923C042C
:101240001092160410928B0310928A0310928D0351
:1012500010928C0310928F0310928E0361E070E065
:1012600090E080E00E945F130097E1F090938B0381
:1012700080938A0310928D0310928C0320918E0329
:1012800030918F03232B11F4FC01108210928F03F5
:1012900010928E036CE271E080918A0390918B032F
:1012A0000C942E1480918A0390918B03009711F077
:1012B0000E94D61210928B0310928A0310928F0311
:1012C00010928E0310928D0310928C0308957894DF
:1012D00084B5826084BD84B5816084BD85B582603B
:1012E00085BD85B5816085BD80916E0081608093EC
:1012F0006E00109281008091810082608093810055
:101300008091810081608093810080918000816064
:10131000809380008091B10084608093B1008091BF
:10132000B00081608093B00080917A0084608093E7
:101330007A0080917A00826080937A0080917A00AE
:10134000816080937A0080917A00806880937A002F
:101350001092C100E091FD02F091FE0282E08083D4
:10136000E091F902F091FA021082E091FB02F09113
:10137000FC028FEC808310920503E0910103F09151
:10138000020386E08083E091FF02F09100038081F8
:1013900080618083E091FF02F0910003808188608A
:1013A0008083E091FF02F091000380818068808358
:1013B000E091FF02F091000380818F7D80838DE3B7
:1013C00094E00E94730369E371E08DEE92E00E9465
:1013D000B70566E571E08DEE92E00E94B7052AE060
:1013E000E22EF12C8FE00E943A020091E702109168
:1013F000E802080F191F1093E8020093E70280E14A
:101400000E943A02C091E502D091E602C80FD91FAE
:10141000D093E602C093E50281E10E943A02209156
:10142000E3023091E402280F391F3093E402209345
:10143000E30281E0E81AF108A9F6EAE0F0E0C80169
:10144000BF010E94E2118B017093E8026093E702F2
:10145000CE01BF010E94E2117093E6026093E502A3
:10146000C901BF010E94E2117093E4026093E3029C
:10147000C8010E947D048091E5029091E6020E94DD
:101480007D048091E3029091E4020E947D0468EE65
:1014900073E080E090E00E947102AA24A39480E0AF
:1014A000E82E80E0F82E92E0992EBB24B3948DE3D1
:1014B00094E00E942403892B09F4C0C28DE394E0D8
:1014C0000E943C03C82F80912D0490912E04A0917E
:1014D0002F04B09130040196A11DB11D80932D04FD
:1014E00090932E04A0932F04B0933004C43209F4D7
:1014F00084C2E0912704C5320CF0BDC0CA3019F097
:10150000CD3009F087C2EF3008F032C1F0E0EA5E7A
:10151000FB4F108280911504882309F437C1209174
:101520001604822F022E000C990B3FEB320F36303F
:1015300008F0ADC0C7978295807F90911704292F3E
:10154000092E000C330B4FEB490F463008F0A7C0B3
:1015500027533109820F909114048913F6C08091AA
:10156000390490913A04A0913B04B0913C04019657
:10157000A11DB11D8093390490933A04A0933B04BC
:10158000B0933C0480912804882399F08091310421
:1015900090913204A0913304B09134040196A11DBE
:1015A000B11D8093310490933204A0933304B0931F
:1015B0003404D0912504DD2309F47AC0D130A1F59B
:1015C00082EB93E00E940B0480EC93E00E940B04FA
:1015D00080912804882341F187E0E0EAF3E0A2E962
:1015E000B3E001900D928A95E1F787E0E7EAF3E036
:1015F000A9E9B3E001900D928A95E1F70E94A30258
:101600006093AE037093AF038093B0039093B103E4
:10161000D0939103D09390038EEC93E00E94F40357
:101620008CED93E00E94F40300912B0410912C04A4
:101630000115110509F49CC0E0912B04F0912C04D4
:1016400066A177A1F80186A197A10E942514892B94
:1016500009F08EC0B801C80140960E942E140E9465
:10166000A302F80160A371A382A393A3A5A2A4A2DD
:1016700002A513A5DDCFCA3209F445CFCC3209F05B
:10168000C9C1809114048C27809314043CCF215647
:10169000263018F4875591094ECFC0974CCF9156FC
:1016A000963018F42755310955CF2053310952CFC0
:1016B00080EC93E00E940B0480912804882321F1A0
:1016C00087E0E0EAF3E0A2E9B3E001900D928A95A9
:1016D000E1F787E0E7EAF3E0A9E9B3E001900D92D2
:1016E0008A95E1F70E94A3026093AE037093AF0363
:1016F0008093B0039093B103B0929103B0929003A2
:101700008AEE93E00E94F403809102049091030416
:10171000A0910404B09105048093FE039093FF030D
:10172000A0930004B09301040E94A3026093FA0303
:101730007093FB038093FC039093FD03B092F90335
:10174000B092F80386E094E06DCF809135049091DB
:101750003604A0913704B09138040196A11DB11D43
:101760008093350490933604A0933704B0933804E3
:10177000809126048F5F809326041092270481E0D5
:10178000CA3209F080E08093150491CE909126042E
:10179000911144C060E671E086E194E00E94251456
:1017A000892B41F066E671E086E194E00E94251401
:1017B000892BF1F4B09225048091290490912A0498
:1017C00090932C0480932B0400912B0410912C04F3
:1017D0000115110569F266E174E0F80186A197A18F
:1017E0000E94251497FFEFC2F80182A593A5E8CFC8
:1017F0006CE671E086E194E00E942514892B41F0AB
:1018000062E771E086E194E00E942514892B19F4C7
:1018100010922504D1CF90922504CECFE0912504DB
:10182000E23009F448C080911604882309F443C0CB
:1018300020E2E29FF0011124E92B3197E932F10512
:1018400008F039C0EA5DF34F0C9418124F0C900C5D
:10185000970C9E0CA10CCF0CD60CE30CF00C5B0C7F
:101860005B0C5B0C5B0C5B0C5B0C5B0C5B0C5B0C40
:101870005B0C5B0C5B0C5B0C5B0C5B0C5B0C5B0C30
:101880005B0C5B0C5B0C5B0C5B0C5B0C4F0C8A0CFD
:10189000900C970C9E0CA10CA80CB50CC20C86E108
:1018A00094E00E9454066093C6037093C70380932C
:1018B000C8039093C90300912B0410912C04D0917C
:1018C00026040115110509F453CFE0912B04F09182
:1018D0002C0466A177A1F80186A197A10E94251486
:1018E000892B09F045CFF80120A531A58D2F90E077
:1018F000821793070CF43CCF2817390739F440E1DD
:1019000050E066E174E0C8010E943514F80102A5B8
:1019100013A5D5CF91E0813409F445C090E043C0D0
:1019200060EA73E086E194E00E94CD05C4CF91E0C7
:10193000833509F090E09093A603BDCF67EA73E08A
:10194000F1CF91E0873509F090E09093AD03B3CFEC
:1019500086E194E00E9454066093D8037093D90303
:101960008093DA039093DB03A6CF86E194E00E9494
:1019700054066093E6037093E7038093E803909323
:10198000E90399CF86E194E00E94090F6093B803C0
:101990007093B9038093BA039093BB038CCF91E00B
:1019A00081330CF4BBCF9093280485CF86E194E07B
:1019B0000E94090F6093020470930304809304044F
:1019C0009093050478CF86E194E00E9454066093DA
:1019D00010047093110480931204909313046BCF3E
:1019E00086E194E00E9454066093F4037093F5033B
:1019F0008093F6039093F7035ECF10922704109222
:101A0000260410921404909225041092150410924A
:101A100028044DCDEE3040F481E08E0F80932704F2
:101A2000F0E0EA5EFB4FC0838091150481113FCD49
:101A300080911404C827C093140439CD8091910378
:101A4000882309F4D5C068E771E08DEE92E00E942A
:101A5000B7051092F9034091FE035091FF03609186
:101A60000004709101042AE08DEE92E00E9431049E
:101A70006AE271E08DEE92E00E94220469E871E072
:101A80008DEE92E00E94B70510929103609194034D
:101A90007091950380919603909197030E944A0F4D
:101AA00028E23BE64EE65EE40E9427112B013C0152
:101AB000609192037091930390E080E00E944A0F3E
:101AC0009B01AC01C301B2010E94BB10AB01BC0180
:101AD000809198038111705826E030E08DEE92E0FD
:101AE0000E94A30563E971E08DEE92E00E94B705C4
:101AF0001092910360919B0370919C0380919D03D0
:101B000090919E030E944A0F28E23BE64EE65EE477
:101B10000E9427112B013C016091990370919A0357
:101B200090E080E00E944A0F9B01AC01C301B2012A
:101B30000E94BB10AB01BC0180919F0381117058C2
:101B400026E030E08DEE92E00E94A3056EE971E0A0
:101B50008DEE92E00E94B7051092CF036091D403FE
:101B60007091D5038091D6039091D7030E944C0FBA
:101B70002EEB3CE443E95FE30E94AB0F20E030E052
:101B800048EC52E40E942711AB01BC0122E030E096
:101B90008DEE92E00E94A30569EA71E08DEE92E07D
:101BA0000E94B7051092EB036091F0037091F1036E
:101BB0008091F2039091F3030E944C0F28E439EFD7
:101BC00041E550E40E94AB0F20E030E048EC52E4E5
:101BD0000E942711AB01BC0122E030E08DEE92E0C3
:101BE0000E94A3056CE271E08DEE92E00E94B705C1
:101BF0008FE00E943A028C0180E10E943A02EC01DF
:101C000081E10E943A02C090E702D090E802C01A37
:101C1000D10A0091E5021091E6020C1B1D0BC09148
:101C2000E302D091E402C81BD90B68EB71E08DEEA2
:101C300092E00E94CB05C6010E947D046BEB71E02F
:101C40008DEE92E00E94CB05C8010E947D046EEBF0
:101C500071E08DEE92E00E94CB05CE010E947D04E2
:101C6000F2E3CF0ED11C25E6C216D10450F40E5C6F
:101C70001F4F0536110528F4E296C536D10508F444
:101C800090C0C5E0D0E061EC71E08DEE92E00E9482
:101C9000B7058CE594E00E94730369EC71E08DEE6A
:101CA00092E00E94B70560ED77E080E090E00E944E
:101CB00071026FED71E08DEE92E00E94B70565E074
:101CC00072E08CE594E00E94CB0568E172E08DEE55
:101CD00092E00E94B70560EB74E080E090E00E9423
:101CE000710260E272E08CE594E00E94CB0565E24F
:101CF00072E08DEE92E00E94B70560E372E08CE541
:101D000094E00E94CB0564E472E08CE594E00E94CC
:101D1000CB056FE472E08CE594E00E94CB0522E0F5
:101D200040E050E0BA018CE594E00E94B5046BE518
:101D300072E08CE594E00E94CB0522E040E050E0A8
:101D4000BA018CE594E00E94B50468E672E08CE587
:101D500094E00E94CB0522E030E040E050E0BA0180
:101D60008CE594E00E94A30568E972E08CE594E0BC
:101D70000E94B70522E030E040E050E0BA018CE577
:101D800094E00E94A3056AE18CE594E00E94C802F9
:101D900065E072E08CE594E00E94CB05219709F0A4
:101DA00072CF68EE73E080E090E00E947102E1146F
:101DB000F10409F47CCB0E94F700882309F477CB67
:101DC0000E94000074CB892B09F4D2CC10922C0411
:101DD00010922B04CDCCCF93DF9380918A03909106
:101DE0008B03009711F00E94D612CAE0D1E0D09385
:101DF0003E04C0933D048DE394E00E945D03D093C4
:101E00005D04C0935C048CE594E0DF91CF910C9469
:101E10005D031F93FC0199278827BC01E894119169
:101E20001032E9F3193010F01E30C8F31B3251F0B4
:101E30001D3249F4689406C00E94300F610F711D75
:101E4000811D911D119110531A30B0F33EF49095FD
:101E50008095709561957F4F8F4F9F4F1F9108958B
:101E6000592F482F372F262F660F771F881F991F4E
:101E7000660F771F881F991F620F731F841F951F9E
:101E8000660F771F881F991F08950E94870F08F417
:101E900081E00895E89409C097FB3EF49095809501
:101EA000709561957F4F8F4F9F4F9923A9F0F92F20
:101EB00096E9BB279395F695879577956795B7959E
:101EC000F111F8CFFAF4BB0F11F460FF1BC06F5F84
:101ED0007F4F8F4F9F4F16C0882311F096E911C096
:101EE000772321F09EE8872F762F05C0662371F0B7
:101EF00096E8862F70E060E02AF09A95660F771FCB
:101F0000881FDAF7880F9695879597F90895990FA6
:101F10000008550FAA0BE0E8FEEF16161706E807B3
:101F2000F907C0F012161306E407F50798F0621BD4
:101F3000730B840B950B39F40A2661F0232B242BA9
:101F4000252B21F408950A2609F4A140A6958FEFC8
:101F5000811D811D08950E94BE0F0C942F100E94B8
:101F6000211038F00E94281020F0952311F00C94D5
:101F700018100C941E1011240C9463100E94401031
:101F800070F3959FC1F3950F50E0551F629FF001CC
:101F9000729FBB27F00DB11D639FAA27F00DB11DE5
:101FA000AA1F649F6627B00DA11D661F829F22276E
:101FB000B00DA11D621F739FB00DA11D621F839FF5
:101FC000A00D611D221F749F3327A00D611D231FCB
:101FD000849F600D211D822F762F6A2F11249F5719
:101FE00050409AF0F1F088234AF0EE0FFF1FBB1F1C
:101FF000661F771F881F91505040A9F79E3F5105DB
:1020000080F00C9418100C9463105F3FE4F3983E3A
:10201000D4F3869577956795B795F795E7959F5F84
:10202000C1F7FE2B880F911D9695879597F9089516
:1020300097F99F6780E870E060E008959FEF80EC7B
:10204000089500240A94161617061806090608951E
:1020500000240A9412161306140605060895092E84
:102060000394000C11F4882352F0BB0F40F4BF2BF3
:1020700011F460FF04C06F5F7F4F8F4F9F4F089533
:1020800057FD9058440F551F59F05F3F71F0479529
:10209000880F97FB991F61F09F3F79F0879508950E
:1020A000121613061406551FF2CF4695F1DF08C02D
:1020B000161617061806991FF1CF8695710561054A
:1020C00008940895E894BB2766277727CB0197F9F2
:1020D00008950E94AB10A59F900DB49F900DA49FF2
:1020E000800D911D112408952F923F924F925F927F
:1020F0006F927F928F929F92AF92BF92CF92DF9218
:10210000EF92FF920F931F93CF93DF93CDB7DEB77C
:10211000CA1BDB0B0FB6F894DEBF0FBECDBF099410
:102120002A88398848885F846E847D848C849B8467
:10213000AA84B984C884DF80EE80FD800C811B8175
:10214000AA81B981CE0FD11D0FB6F894DEBF0FBEA4
:10215000CDBFED010895A29FB001B39FC001A39F21
:10216000700D811D1124911DB29F700D811D1124D0
:10217000911D08955058BB27AA270E94D2100C9495
:102180002F100E94211038F00E94281020F039F4FE
:102190009F3F19F426F40C941E100EF4E095E7FB13
:1021A0000C941810E92F0E94401058F3BA176207D8
:1021B00073078407950720F079F4A6F50C94621054
:1021C0000EF4E0950B2EBA2FA02D0B01B901900152
:1021D0000C01CA01A0011124FF27591B99F0593F96
:1021E00050F4503E68F11A16F040A22F232F342FDE
:1021F0004427585FF3CF469537952795A795F0402C
:102200005395C9F77EF41F16BA0B620B730B840B40
:10221000BAF09150A1F0FF0FBB1F661F771F881FF8
:10222000C2F70EC0BA0F621F731F841F48F4879550
:1022300077956795B795F7959E3F08F0B0CF939542
:10224000880F08F09927EE0F9795879508950E94BB
:102250003B110C942F100E94281058F00E9421105E
:1022600040F029F45F3F29F00C94181051110C94A0
:1022700063100C941E100E94401068F39923B1F370
:10228000552391F3951B550BBB27AA27621773079C
:10229000840738F09F5F5F4F220F331F441FAA1F30
:1022A000A9F335D00E2E3AF0E0E832D091505040EC
:1022B000E695001CCAF72BD0FE2F29D0660F771F9A
:1022C000881FBB1F261737074807AB07B0E809F080
:1022D000BB0B802DBF01FF2793585F4F3AF09E3F05
:1022E000510578F00C9418100C9463105F3FE4F3E0
:1022F000983ED4F3869577956795B795F7959F5F48
:10230000C9F7880F911D9695879597F90895E1E093
:10231000660F771F881FBB1F621773078407BA07F2
:1023200020F0621B730B840BBA0BEE1F88F7E0954D
:1023300008950E94481088F09F5798F0B92F992768
:10234000B751B0F0E1F0660F771F881F991F1AF0A0
:10235000BA95C9F714C0B13091F00E946210B1E093
:1023600008950C946210672F782F8827B85F39F092
:10237000B93FCCF3869577956795B395D9F73EF439
:1023800090958095709561957F4F8F4F9F4F0895E1
:102390000E94870F08F48FEF08950E94870F880B23
:1023A000990B0895DB018F939F930E946910BF9151
:1023B000AF91A29F800D911DA39F900DB29F900D94
:1023C0001124089597FB072E16F4009407D077FD8B
:1023D00009D00E94261207FC05D03EF49095819505
:1023E0009F4F0895709561957F4F0895A1E21A2E31
:1023F000AA1BBB1BFD010DC0AA1FBB1FEE1FFF1FA9
:10240000A217B307E407F50720F0A21BB30BE40BF8
:10241000F50B661F771F881F991F1A9469F760953F
:102420007095809590959B01AC01BD01CF010895F9
:10243000EE0FFF1F0590F491E02D0994B7FF0C9467
:1024400069100E946910821B930B0895AA1BBB1B85
:1024500051E107C0AA1FBB1FA617B70710F0A61BA4
:10246000B70B881F991F5A95A9F780959095BC01C5
:10247000CD0108950F931F93CF93DF938230910581
:1024800010F482E090E0E0917D04F0917E0430E071
:1024900020E0B0E0A0E0309799F42115310509F46F
:1024A0004AC0281B390B24303105D8F58A819B811D
:1024B0006115710589F1FB0193838283FE0111C0CF
:1024C000408151810281138148175907E0F0481774
:1024D000590799F4109761F012960C93129713967E
:1024E0001C933296CF01DF91CF911F910F910895E8
:1024F00000937D0410937E04F4CF2115310551F033
:102500004217530738F0A901DB019A01BD01DF0131
:10251000F801C1CFEF01F9CF90937E0480937D0441
:10252000CDCFFE01E20FF31F819391932250310929
:1025300039832883D7CF20917B0430917C04232BCF
:1025400041F4209102013091030130937C042093E7
:102550007B0420910001309101012115310541F4E6
:102560002DB73EB74091040150910501241B350B56
:10257000E0917B04F0917C04E217F307A0F42E1B9A
:102580003F0B2817390778F0AC014E5F5F4F2417D7
:10259000350748F04E0F5F1F50937C0440937B0437
:1025A000819391939FCFF0E0E0E09CCFCF93DF93B6
:1025B0000097E9F0FC01329713821282A0917D040A
:1025C000B0917E04ED0130E020E01097A1F420816D
:1025D0003181820F931F20917B0430917C04281756
:1025E000390709F061C0F0937C04E0937B04DF912C
:1025F000CF910895EA01CE17DF07E8F54A815B81A4
:102600009E0141155105B1F7E901FB83EA83499128
:102610005991C40FD51FEC17FD0761F4808191819A
:102620000296840F951FE9019983888382819381A3
:102630009B838A83F0E0E0E012968D919C91139742
:102640000097B9F52D913C911197CD010296820F1B
:10265000931F20917B0430917C042817390739F6A9
:10266000309751F510927E0410927D04B0937C0453
:10267000A0937B04BCCFD383C28340815181840F5C
:10268000951FC817D90761F44E5F5F4F8881998104
:10269000480F591F518340838A819B819383828392
:1026A0002115310509F0B0CFF0937E04E0937D044D
:1026B0009ECFFD01DC01C0CF13821282D7CFB0E0E4
:1026C000A0E0E5E6F3E10C9476108C01009751F45C
:1026D000CB010E943A128C01C801CDB7DEB7E0E110
:1026E0000C949210FC01E60FF71F9C012250310957
:1026F000E217F30708F49DC0D901CD91DC91119741
:10270000C617D70798F0C530D10530F3CE0104972E
:102710008617970708F3C61BD70B2297C193D1934F
:102720006D937C93CF010E94D612D6CF5B01AC1A79
:10273000BD0A4C018C0E9D1EA0917D04B0917E04BB
:10274000512C412CF12CE12C109731F580917B0418
:1027500090917C048815990509F05CC046165706CF
:1027600008F058C08091000190910101009741F458
:102770008DB79EB74091040150910501841B950BC4
:10278000E817F90708F055C0F0937C04E0937B0448
:10279000F90171836083A0CF8D919C91119712965E
:1027A0006C90129713967C901397A815B90559F55C
:1027B0006C0142E0C40ED11CCA14DB0420F1AC0150
:1027C0004A195B09DA011296159780F062827382CA
:1027D00051834083D9016D937C93E114F10471F02E
:1027E000D7011396FC93EE93129776CF22968C0F17
:1027F0009D1FF90191838083F301EFCFF0937E0455
:10280000E0937D0469CF4816590608F42C017D0138
:10281000D3019ACFCB010E943A127C01009749F074
:10282000AE01B8010E941C14C8010E94D612870193
:1028300053CF10E000E050CFFB01DC0102C001905B
:102840000D9241505040D8F70895FB01DC018D9165
:10285000019080190110D9F3990B0895FB01DC0157
:1028600001900D920020E1F70895FB01DC01415039
:10287000504048F001900D920020C9F701C01D9210
:1028800041505040E0F7089510E0C2E6D0E004C0A7
:10289000FE010E9418122196C336D107C9F7F89499
:1028A000FFCF00007F04800000000000C8028D0000
:1028B000F103C70224033C03AF02000000002D0116
:1028C0008D00BA007A01EB00C900DD000D0A006E30
:1028D000616E00696E66006F76660073756363658E
:1028E000737366756C6C7920496E697469616C6983
:1028F0007A65642E2E2E2E00475053205374617239
:1029000074004750524D4300474E524D43004750CC
:1029100047474100474E47474100536174656C6C1F
:1029200069746520436F756E743A004C6174697404
:102930007564653A004C6F6E6769747564653A003A
:102940005370656564204D50483A00416C74697459
:1029500075646520466565743A00783D00793D00F0
:102960007A3D0043616C6C696E6700436F6E6E6503
:102970006374696E6720746F206E6574776F726B15
:102980000053686F756C6420626520636F6E6E65BE
:102990006374656420746F206E6574776F726B204A
:1029A0006279206E6F77004154442B78787878787C
:1029B000787878787878783B0D004469616C696E36
:1029C00067004154480D00446973636F6E6E656320
:1029D00074004163636964656E7420446574656363
:1029E0007465643B20004C6F636174696F6E3B20BB
:1029F000004C61746974756465202D20004C6F6E05
:102A0000676974756465202D2000687474703A2FAE
:102A10002F6D6170732E676F6F676C652E636F6DBE
:102A20002F6D6170733F267A3D3135266D72743D8E
:0C2A3000797026743D6B26713D002B0070
:107E0000112484B714BE81FFF0D085E080938100F7
:107E100082E08093C00088E18093C10086E0809377
:107E2000C20080E18093C4008EE0C9D0259A86E02C
:107E300020E33CEF91E0309385002093840096BBD3
:107E4000B09BFECF1D9AA8958150A9F7CC24DD24C4
:107E500088248394B5E0AB2EA1E19A2EF3E0BF2EE7
:107E6000A2D0813461F49FD0082FAFD0023811F036
:107E7000013811F484E001C083E08DD089C08234E0
:107E800011F484E103C0853419F485E0A6D080C0E4
:107E9000853579F488D0E82EFF2485D0082F10E0AE
:107EA000102F00270E291F29000F111F8ED06801E7
:107EB0006FC0863521F484E090D080E0DECF843638
:107EC00009F040C070D06FD0082F6DD080E0C81688
:107ED00080E7D80618F4F601B7BEE895C0E0D1E017
:107EE00062D089930C17E1F7F0E0CF16F0E7DF06D8
:107EF00018F0F601B7BEE89568D007B600FCFDCFD4
:107F0000A601A0E0B1E02C9130E011968C91119780
:107F100090E0982F8827822B932B1296FA010C0160
:107F200087BEE89511244E5F5F4FF1E0A038BF0790
:107F300051F7F601A7BEE89507B600FCFDCF97BE46
:107F4000E89526C08437B1F42ED02DD0F82E2BD052
:107F50003CD0F601EF2C8F010F5F1F4F84911BD097
:107F6000EA94F801C1F70894C11CD11CFA94CF0C13
:107F7000D11C0EC0853739F428D08EE10CD085E9AC
:107F80000AD08FE07ACF813511F488E018D01DD067
:107F900080E101D065CF982F8091C00085FFFCCF94
:107FA0009093C60008958091C00087FFFCCF809118
:107FB000C00084FD01C0A8958091C6000895E0E648
:107FC000F0E098E1908380830895EDDF803219F02E
:107FD00088E0F5DFFFCF84E1DECF1F93182FE3DFCA
:107FE0001150E9F7F2DF1F91089580E0E8DFEE27F6
:047FF000FF270994CA
:027FFE00040479
:00000001FF
